{
  "_format": "hh-sol-artifact-1",
  "contractName": "EscrowHub",
  "sourceName": "contracts/EscrowHub.sol",
  "abi": [
    {
      "inputs": [],
      "stateMutability": "nonpayable",
      "type": "constructor"
    },
    {
      "anonymous": false,
      "inputs": [
        {
          "indexed": false,
          "internalType": "address",
          "name": "previousAdmin",
          "type": "address"
        },
        {
          "indexed": false,
          "internalType": "address",
          "name": "newAdmin",
          "type": "address"
        }
      ],
      "name": "AdminChanged",
      "type": "event"
    },
    {
      "anonymous": false,
      "inputs": [
        {
          "indexed": true,
          "internalType": "address",
          "name": "beacon",
          "type": "address"
        }
      ],
      "name": "BeaconUpgraded",
      "type": "event"
    },
    {
      "anonymous": false,
      "inputs": [
        {
          "indexed": true,
          "internalType": "uint256",
          "name": "escrowId",
          "type": "uint256"
        },
        {
          "indexed": false,
          "internalType": "string",
          "name": "cid",
          "type": "string"
        },
        {
          "indexed": false,
          "internalType": "address",
          "name": "buyer",
          "type": "address"
        },
        {
          "indexed": false,
          "internalType": "address",
          "name": "seller",
          "type": "address"
        },
        {
          "indexed": true,
          "internalType": "uint256",
          "name": "amount",
          "type": "uint256"
        },
        {
          "indexed": true,
          "internalType": "uint256",
          "name": "fee",
          "type": "uint256"
        },
        {
          "indexed": false,
          "internalType": "uint256",
          "name": "expireAt",
          "type": "uint256"
        },
        {
          "indexed": false,
          "internalType": "enum EscrowHub.EscrowState",
          "name": "state",
          "type": "uint8"
        }
      ],
      "name": "EscrowCreated",
      "type": "event"
    },
    {
      "anonymous": false,
      "inputs": [
        {
          "indexed": true,
          "internalType": "uint256",
          "name": "escrowId",
          "type": "uint256"
        },
        {
          "indexed": true,
          "internalType": "uint256",
          "name": "clearAt",
          "type": "uint256"
        },
        {
          "indexed": true,
          "internalType": "enum EscrowHub.EscrowState",
          "name": "state",
          "type": "uint8"
        }
      ],
      "name": "EscrowUpdated",
      "type": "event"
    },
    {
      "anonymous": false,
      "inputs": [
        {
          "indexed": false,
          "internalType": "uint8",
          "name": "version",
          "type": "uint8"
        }
      ],
      "name": "Initialized",
      "type": "event"
    },
    {
      "anonymous": false,
      "inputs": [
        {
          "indexed": true,
          "internalType": "address",
          "name": "previousOwner",
          "type": "address"
        },
        {
          "indexed": true,
          "internalType": "address",
          "name": "newOwner",
          "type": "address"
        }
      ],
      "name": "OwnershipTransferred",
      "type": "event"
    },
    {
      "anonymous": false,
      "inputs": [
        {
          "indexed": true,
          "internalType": "address",
          "name": "implementation",
          "type": "address"
        }
      ],
      "name": "Upgraded",
      "type": "event"
    },
    {
      "inputs": [
        {
          "internalType": "uint256",
          "name": "_escrowId",
          "type": "uint256"
        }
      ],
      "name": "claimAfterExpire",
      "outputs": [],
      "stateMutability": "nonpayable",
      "type": "function"
    },
    {
      "inputs": [
        {
          "internalType": "uint256",
          "name": "_escrowId",
          "type": "uint256"
        }
      ],
      "name": "deliver",
      "outputs": [],
      "stateMutability": "nonpayable",
      "type": "function"
    },
    {
      "inputs": [
        {
          "internalType": "uint256",
          "name": "escrowId",
          "type": "uint256"
        }
      ],
      "name": "fetchEscrow",
      "outputs": [
        {
          "components": [
            {
              "internalType": "uint256",
              "name": "id",
              "type": "uint256"
            },
            {
              "internalType": "string",
              "name": "cid",
              "type": "string"
            },
            {
              "internalType": "address",
              "name": "buyer",
              "type": "address"
            },
            {
              "internalType": "address",
              "name": "seller",
              "type": "address"
            },
            {
              "internalType": "uint256",
              "name": "amount",
              "type": "uint256"
            },
            {
              "internalType": "uint256",
              "name": "fee",
              "type": "uint256"
            },
            {
              "internalType": "uint256",
              "name": "createdAt",
              "type": "uint256"
            },
            {
              "internalType": "uint256",
              "name": "expireAt",
              "type": "uint256"
            },
            {
              "internalType": "uint256",
              "name": "clearAt",
              "type": "uint256"
            },
            {
              "internalType": "enum EscrowHub.EscrowState",
              "name": "state",
              "type": "uint8"
            }
          ],
          "internalType": "struct EscrowHub.Escrow",
          "name": "",
          "type": "tuple"
        }
      ],
      "stateMutability": "view",
      "type": "function"
    },
    {
      "inputs": [
        {
          "internalType": "uint256",
          "name": "cursor",
          "type": "uint256"
        },
        {
          "internalType": "uint256",
          "name": "perPageCount",
          "type": "uint256"
        }
      ],
      "name": "fetchEscrowsPaginated",
      "outputs": [
        {
          "components": [
            {
              "internalType": "uint256",
              "name": "id",
              "type": "uint256"
            },
            {
              "internalType": "string",
              "name": "cid",
              "type": "string"
            },
            {
              "internalType": "address",
              "name": "buyer",
              "type": "address"
            },
            {
              "internalType": "address",
              "name": "seller",
              "type": "address"
            },
            {
              "internalType": "uint256",
              "name": "amount",
              "type": "uint256"
            },
            {
              "internalType": "uint256",
              "name": "fee",
              "type": "uint256"
            },
            {
              "internalType": "uint256",
              "name": "createdAt",
              "type": "uint256"
            },
            {
              "internalType": "uint256",
              "name": "expireAt",
              "type": "uint256"
            },
            {
              "internalType": "uint256",
              "name": "clearAt",
              "type": "uint256"
            },
            {
              "internalType": "enum EscrowHub.EscrowState",
              "name": "state",
              "type": "uint8"
            }
          ],
          "internalType": "struct EscrowHub.Escrow[]",
          "name": "data",
          "type": "tuple[]"
        },
        {
          "internalType": "uint256",
          "name": "totalItemCount",
          "type": "uint256"
        },
        {
          "internalType": "bool",
          "name": "hasNextPage",
          "type": "bool"
        },
        {
          "internalType": "uint256",
          "name": "nextCursor",
          "type": "uint256"
        }
      ],
      "stateMutability": "view",
      "type": "function"
    },
    {
      "inputs": [],
      "name": "fetchMyEscrows",
      "outputs": [
        {
          "components": [
            {
              "internalType": "uint256",
              "name": "id",
              "type": "uint256"
            },
            {
              "internalType": "string",
              "name": "cid",
              "type": "string"
            },
            {
              "internalType": "address",
              "name": "buyer",
              "type": "address"
            },
            {
              "internalType": "address",
              "name": "seller",
              "type": "address"
            },
            {
              "internalType": "uint256",
              "name": "amount",
              "type": "uint256"
            },
            {
              "internalType": "uint256",
              "name": "fee",
              "type": "uint256"
            },
            {
              "internalType": "uint256",
              "name": "createdAt",
              "type": "uint256"
            },
            {
              "internalType": "uint256",
              "name": "expireAt",
              "type": "uint256"
            },
            {
              "internalType": "uint256",
              "name": "clearAt",
              "type": "uint256"
            },
            {
              "internalType": "enum EscrowHub.EscrowState",
              "name": "state",
              "type": "uint8"
            }
          ],
          "internalType": "struct EscrowHub.Escrow[]",
          "name": "",
          "type": "tuple[]"
        }
      ],
      "stateMutability": "view",
      "type": "function"
    },
    {
      "inputs": [],
      "name": "initialize",
      "outputs": [],
      "stateMutability": "nonpayable",
      "type": "function"
    },
    {
      "inputs": [
        {
          "internalType": "address",
          "name": "_seller",
          "type": "address"
        },
        {
          "internalType": "uint256",
          "name": "_amount",
          "type": "uint256"
        },
        {
          "internalType": "string",
          "name": "_cid",
          "type": "string"
        },
        {
          "internalType": "uint256",
          "name": "expireIn",
          "type": "uint256"
        }
      ],
      "name": "newEscrow",
      "outputs": [],
      "stateMutability": "nonpayable",
      "type": "function"
    },
    {
      "inputs": [],
      "name": "owner",
      "outputs": [
        {
          "internalType": "address",
          "name": "",
          "type": "address"
        }
      ],
      "stateMutability": "view",
      "type": "function"
    },
    {
      "inputs": [],
      "name": "proxiableUUID",
      "outputs": [
        {
          "internalType": "bytes32",
          "name": "",
          "type": "bytes32"
        }
      ],
      "stateMutability": "view",
      "type": "function"
    },
    {
      "inputs": [
        {
          "internalType": "uint256",
          "name": "_escrowId",
          "type": "uint256"
        }
      ],
      "name": "refund",
      "outputs": [],
      "stateMutability": "nonpayable",
      "type": "function"
    },
    {
      "inputs": [],
      "name": "renounceOwnership",
      "outputs": [],
      "stateMutability": "nonpayable",
      "type": "function"
    },
    {
      "inputs": [
        {
          "internalType": "address",
          "name": "newOwner",
          "type": "address"
        }
      ],
      "name": "transferOwnership",
      "outputs": [],
      "stateMutability": "nonpayable",
      "type": "function"
    },
    {
      "inputs": [
        {
          "internalType": "address",
          "name": "newImplementation",
          "type": "address"
        }
      ],
      "name": "upgradeTo",
      "outputs": [],
      "stateMutability": "nonpayable",
      "type": "function"
    },
    {
      "inputs": [
        {
          "internalType": "address",
          "name": "newImplementation",
          "type": "address"
        },
        {
          "internalType": "bytes",
          "name": "data",
          "type": "bytes"
        }
      ],
      "name": "upgradeToAndCall",
      "outputs": [],
      "stateMutability": "payable",
      "type": "function"
    }
  ],
  "bytecode": "0x60a06040523073ffffffffffffffffffffffffffffffffffffffff1660809073ffffffffffffffffffffffffffffffffffffffff168152503480156200004457600080fd5b50620000556200005b60201b60201c565b62000206565b600060019054906101000a900460ff1615620000ae576040517f08c379a0000000000000000000000000000000000000000000000000000000008152600401620000a590620001a9565b60405180910390fd5b60ff801660008054906101000a900460ff1660ff161015620001205760ff6000806101000a81548160ff021916908360ff1602179055507f7f26b83ff96e1f2b6a682f133852f6798a09c465da95921460cefb384740249860ff604051620001179190620001e9565b60405180910390a15b565b600082825260208201905092915050565b7f496e697469616c697a61626c653a20636f6e747261637420697320696e69746960008201527f616c697a696e6700000000000000000000000000000000000000000000000000602082015250565b60006200019160278362000122565b91506200019e8262000133565b604082019050919050565b60006020820190508181036000830152620001c48162000182565b9050919050565b600060ff82169050919050565b620001e381620001cb565b82525050565b6000602082019050620002006000830184620001d8565b92915050565b608051614dea6200023e60003960008181610c9501528181610d23015281816111cf0152818161125d015261130d0152614dea6000f3fe6080604052600436106100dd5760003560e01c80638129fc1c1161007f578063a6d0228711610059578063a6d0228714610251578063d0f81cbf1461027a578063ede6d084146102b7578063f2fde38b146102f7576100dd565b80638129fc1c146101e65780638da5cb5b146101fd5780639b0731af14610228576100dd565b80633bd5d173116100bb5780633bd5d1731461015f5780634f1ef2861461018857806352d1902d146101a4578063715018a6146101cf576100dd565b8063261582b9146100e2578063278ecde11461010d5780633659cfe614610136575b600080fd5b3480156100ee57600080fd5b506100f7610320565b6040516101049190613503565b60405180910390f35b34801561011957600080fd5b50610134600480360381019061012f9190613565565b610934565b005b34801561014257600080fd5b5061015d600480360381019061015891906135be565b610c93565b005b34801561016b57600080fd5b5061018660048036038101906101819190613565565b610e1b565b005b6101a2600480360381019061019d9190613720565b6111cd565b005b3480156101b057600080fd5b506101b9611309565b6040516101c69190613795565b60405180910390f35b3480156101db57600080fd5b506101e46113c2565b005b3480156101f257600080fd5b506101fb6113d6565b005b34801561020957600080fd5b50610212611524565b60405161021f91906137bf565b60405180910390f35b34801561023457600080fd5b5061024f600480360381019061024a9190613565565b61154e565b005b34801561025d57600080fd5b506102786004803603810190610273919061387b565b611959565b005b34801561028657600080fd5b506102a1600480360381019061029c9190613565565b611fea565b6040516102ae91906139d8565b60405180910390f35b3480156102c357600080fd5b506102de60048036038101906102d991906139fa565b6121cd565b6040516102ee9493929190613a64565b60405180910390f35b34801561030357600080fd5b5061031e600480360381019061031991906135be565b612940565b005b60603373ffffffffffffffffffffffffffffffffffffffff16610341611524565b73ffffffffffffffffffffffffffffffffffffffff16036105e957600061036860fb6129c3565b905060008167ffffffffffffffff811115610386576103856135f5565b5b6040519080825280602002602001820160405280156103bf57816020015b6103ac613175565b8152602001906001900390816103a45790505b50905060005b828110156105de5760fc60006001836103de9190613adf565b8152602001908152602001600020604051806101400160405290816000820154815260200160018201805461041290613b42565b80601f016020809104026020016040519081016040528092919081815260200182805461043e90613b42565b801561048b5780601f106104605761010080835404028352916020019161048b565b820191906000526020600020905b81548152906001019060200180831161046e57829003601f168201915b505050505081526020016002820160009054906101000a900473ffffffffffffffffffffffffffffffffffffffff1673ffffffffffffffffffffffffffffffffffffffff1673ffffffffffffffffffffffffffffffffffffffff1681526020016003820160009054906101000a900473ffffffffffffffffffffffffffffffffffffffff1673ffffffffffffffffffffffffffffffffffffffff1673ffffffffffffffffffffffffffffffffffffffff16815260200160048201548152602001600582015481526020016006820154815260200160078201548152602001600882015481526020016009820160009054906101000a900460ff1660038111156105975761059661331c565b5b60038111156105a9576105a861331c565b5b815250508282815181106105c0576105bf613b73565b5b602002602001018190525080806105d690613ba2565b9150506103c5565b508092505050610931565b600060fd60003373ffffffffffffffffffffffffffffffffffffffff1673ffffffffffffffffffffffffffffffffffffffff1681526020019081526020016000205467ffffffffffffffff811115610644576106436135f5565b5b60405190808252806020026020018201604052801561067d57816020015b61066a613175565b8152602001906001900390816106625790505b50905060005b60fd60003373ffffffffffffffffffffffffffffffffffffffff1673ffffffffffffffffffffffffffffffffffffffff1681526020019081526020016000205481101561092b5760fc600060fe60003373ffffffffffffffffffffffffffffffffffffffff1673ffffffffffffffffffffffffffffffffffffffff168152602001908152602001600020600060018561071c9190613adf565b8152602001908152602001600020548152602001908152602001600020604051806101400160405290816000820154815260200160018201805461075f90613b42565b80601f016020809104026020016040519081016040528092919081815260200182805461078b90613b42565b80156107d85780601f106107ad576101008083540402835291602001916107d8565b820191906000526020600020905b8154815290600101906020018083116107bb57829003601f168201915b505050505081526020016002820160009054906101000a900473ffffffffffffffffffffffffffffffffffffffff1673ffffffffffffffffffffffffffffffffffffffff1673ffffffffffffffffffffffffffffffffffffffff1681526020016003820160009054906101000a900473ffffffffffffffffffffffffffffffffffffffff1673ffffffffffffffffffffffffffffffffffffffff1673ffffffffffffffffffffffffffffffffffffffff16815260200160048201548152602001600582015481526020016006820154815260200160078201548152602001600882015481526020016009820160009054906101000a900460ff1660038111156108e4576108e361331c565b5b60038111156108f6576108f561331c565b5b8152505082828151811061090d5761090c613b73565b5b6020026020010181905250808061092390613ba2565b915050610683565b50809150505b90565b803373ffffffffffffffffffffffffffffffffffffffff1660fc600083815260200190815260200160002060030160009054906101000a900473ffffffffffffffffffffffffffffffffffffffff1673ffffffffffffffffffffffffffffffffffffffff1614806109d757503373ffffffffffffffffffffffffffffffffffffffff166109bf611524565b73ffffffffffffffffffffffffffffffffffffffff16145b610a16576040517f08c379a0000000000000000000000000000000000000000000000000000000008152600401610a0d90613c6d565b60405180910390fd5b600260015403610a5b576040517f08c379a0000000000000000000000000000000000000000000000000000000008152600401610a5290613cd9565b60405180910390fd5b600260018190555060006003811115610a7757610a7661331c565b5b60fc600084815260200190815260200160002060090160009054906101000a900460ff166003811115610aad57610aac61331c565b5b14610aed576040517f08c379a0000000000000000000000000000000000000000000000000000000008152600401610ae490613d6b565b60405180910390fd5b73bf2afd48853b9dfe853a4486a2f88ca90aee37c773ffffffffffffffffffffffffffffffffffffffff1663a9059cbb60fc600085815260200190815260200160002060020160009054906101000a900473ffffffffffffffffffffffffffffffffffffffff1660fc60008681526020019081526020016000206005015460fc600087815260200190815260200160002060040154610b8c9190613adf565b6040518363ffffffff1660e01b8152600401610ba9929190613d8b565b6020604051808303816000875af1158015610bc8573d6000803e3d6000fd5b505050506040513d601f19601f82011682018060405250810190610bec9190613de0565b504260fc600084815260200190815260200160002060080181905550600360fc600084815260200190815260200160002060090160006101000a81548160ff02191690836003811115610c4257610c4161331c565b5b0217905550600380811115610c5a57610c5961331c565b5b42837f29bd7d41b00e9d8bd59b8f59da523395a319f59962022148100044871410bbb360405160405180910390a4600180819055505050565b7f000000000000000000000000000000000000000000000000000000000000000073ffffffffffffffffffffffffffffffffffffffff163073ffffffffffffffffffffffffffffffffffffffff1603610d21576040517f08c379a0000000000000000000000000000000000000000000000000000000008152600401610d1890613e7f565b60405180910390fd5b7f000000000000000000000000000000000000000000000000000000000000000073ffffffffffffffffffffffffffffffffffffffff16610d606129d1565b73ffffffffffffffffffffffffffffffffffffffff1614610db6576040517f08c379a0000000000000000000000000000000000000000000000000000000008152600401610dad90613f11565b60405180910390fd5b610dbf81612a28565b610e1881600067ffffffffffffffff811115610dde57610ddd6135f5565b5b6040519080825280601f01601f191660200182016040528015610e105781602001600182028036833780820191505090505b506000612a33565b50565b803373ffffffffffffffffffffffffffffffffffffffff1660fc600083815260200190815260200160002060020160009054906101000a900473ffffffffffffffffffffffffffffffffffffffff1673ffffffffffffffffffffffffffffffffffffffff1614610ec0576040517f08c379a0000000000000000000000000000000000000000000000000000000008152600401610eb790613f7d565b60405180910390fd5b600260015403610f05576040517f08c379a0000000000000000000000000000000000000000000000000000000008152600401610efc90613cd9565b60405180910390fd5b600260018190555060006003811115610f2157610f2061331c565b5b60fc600084815260200190815260200160002060090160009054906101000a900460ff166003811115610f5757610f5661331c565b5b14610f97576040517f08c379a0000000000000000000000000000000000000000000000000000000008152600401610f8e9061400f565b60405180910390fd5b73bf2afd48853b9dfe853a4486a2f88ca90aee37c773ffffffffffffffffffffffffffffffffffffffff1663a9059cbb60fc600085815260200190815260200160002060030160009054906101000a900473ffffffffffffffffffffffffffffffffffffffff1660fc6000868152602001908152602001600020600401546040518363ffffffff1660e01b8152600401611032929190613d8b565b6020604051808303816000875af1158015611051573d6000803e3d6000fd5b505050506040513d601f19601f820116820180604052508101906110759190613de0565b5073bf2afd48853b9dfe853a4486a2f88ca90aee37c773ffffffffffffffffffffffffffffffffffffffff1663a9059cbb6110ae611524565b60fc6000868152602001908152602001600020600501546040518363ffffffff1660e01b81526004016110e2929190613d8b565b6020604051808303816000875af1158015611101573d6000803e3d6000fd5b505050506040513d601f19601f820116820180604052508101906111259190613de0565b504260fc600084815260200190815260200160002060080181905550600160fc600084815260200190815260200160002060090160006101000a81548160ff0219169083600381111561117b5761117a61331c565b5b0217905550600160038111156111945761119361331c565b5b42837f29bd7d41b00e9d8bd59b8f59da523395a319f59962022148100044871410bbb360405160405180910390a4600180819055505050565b7f000000000000000000000000000000000000000000000000000000000000000073ffffffffffffffffffffffffffffffffffffffff163073ffffffffffffffffffffffffffffffffffffffff160361125b576040517f08c379a000000000000000000000000000000000000000000000000000000000815260040161125290613e7f565b60405180910390fd5b7f000000000000000000000000000000000000000000000000000000000000000073ffffffffffffffffffffffffffffffffffffffff1661129a6129d1565b73ffffffffffffffffffffffffffffffffffffffff16146112f0576040517f08c379a00000000000000000000000000000000000000000000000000000000081526004016112e790613f11565b60405180910390fd5b6112f982612a28565b61130582826001612a33565b5050565b60007f000000000000000000000000000000000000000000000000000000000000000073ffffffffffffffffffffffffffffffffffffffff163073ffffffffffffffffffffffffffffffffffffffff1614611399576040517f08c379a0000000000000000000000000000000000000000000000000000000008152600401611390906140a1565b60405180910390fd5b7f360894a13ba1a3210667c828492db98dca3e2076cc3735a920a3ca505d382bbc60001b905090565b6113ca612ba1565b6113d46000612c1f565b565b60008060019054906101000a900460ff161590508080156114075750600160008054906101000a900460ff1660ff16105b80611434575061141630612ce5565b1580156114335750600160008054906101000a900460ff1660ff16145b5b611473576040517f08c379a000000000000000000000000000000000000000000000000000000000815260040161146a90614133565b60405180910390fd5b60016000806101000a81548160ff021916908360ff16021790555080156114b0576001600060016101000a81548160ff0219169083151502179055505b6114b8612d08565b6114c0612d61565b6114c8612dba565b80156115215760008060016101000a81548160ff0219169083151502179055507f7f26b83ff96e1f2b6a682f133852f6798a09c465da95921460cefb3847402498600160405161151891906141a5565b60405180910390a15b50565b6000606560009054906101000a900473ffffffffffffffffffffffffffffffffffffffff16905090565b803373ffffffffffffffffffffffffffffffffffffffff1660fc600083815260200190815260200160002060030160009054906101000a900473ffffffffffffffffffffffffffffffffffffffff1673ffffffffffffffffffffffffffffffffffffffff16146115f3576040517f08c379a00000000000000000000000000000000000000000000000000000000081526004016115ea9061420c565b60405180910390fd5b600260015403611638576040517f08c379a000000000000000000000000000000000000000000000000000000000815260040161162f90613cd9565b60405180910390fd5b60026001819055504260fc6000848152602001908152602001600020600701541115611699576040517f08c379a000000000000000000000000000000000000000000000000000000000815260040161169090614278565b60405180910390fd5b600060038111156116ad576116ac61331c565b5b60fc600084815260200190815260200160002060090160009054906101000a900460ff1660038111156116e3576116e261331c565b5b14611723576040517f08c379a000000000000000000000000000000000000000000000000000000000815260040161171a9061430a565b60405180910390fd5b73bf2afd48853b9dfe853a4486a2f88ca90aee37c773ffffffffffffffffffffffffffffffffffffffff1663a9059cbb60fc600085815260200190815260200160002060030160009054906101000a900473ffffffffffffffffffffffffffffffffffffffff1660fc6000868152602001908152602001600020600401546040518363ffffffff1660e01b81526004016117be929190613d8b565b6020604051808303816000875af11580156117dd573d6000803e3d6000fd5b505050506040513d601f19601f820116820180604052508101906118019190613de0565b5073bf2afd48853b9dfe853a4486a2f88ca90aee37c773ffffffffffffffffffffffffffffffffffffffff1663a9059cbb61183a611524565b60fc6000868152602001908152602001600020600501546040518363ffffffff1660e01b815260040161186e929190613d8b565b6020604051808303816000875af115801561188d573d6000803e3d6000fd5b505050506040513d601f19601f820116820180604052508101906118b19190613de0565b504260fc600084815260200190815260200160002060080181905550600260fc600084815260200190815260200160002060090160006101000a81548160ff021916908360038111156119075761190661331c565b5b0217905550600260038111156119205761191f61331c565b5b42837f29bd7d41b00e9d8bd59b8f59da523395a319f59962022148100044871410bbb360405160405180910390a4600180819055505050565b82600073bf2afd48853b9dfe853a4486a2f88ca90aee37c773ffffffffffffffffffffffffffffffffffffffff1663dd62ed3e33306040518363ffffffff1660e01b81526004016119ab92919061432a565b602060405180830381865afa1580156119c8573d6000803e3d6000fd5b505050506040513d601f19601f820116820180604052508101906119ec9190614368565b905081811015611a31576040517f08c379a0000000000000000000000000000000000000000000000000000000008152600401611a2890614407565b60405180910390fd5b600260015403611a76576040517f08c379a0000000000000000000000000000000000000000000000000000000008152600401611a6d90613cd9565b60405180910390fd5b6002600181905550655af3107a4000851015611ac7576040517f08c379a0000000000000000000000000000000000000000000000000000000008152600401611abe90614499565b60405180910390fd5b73bf2afd48853b9dfe853a4486a2f88ca90aee37c773ffffffffffffffffffffffffffffffffffffffff166323b872dd3330886040518463ffffffff1660e01b8152600401611b18939291906144b9565b6020604051808303816000875af1158015611b37573d6000803e3d6000fd5b505050506040513d601f19601f82011682018060405250810190611b5b9190613de0565b50611b6660fb612e0b565b6000611b7260fb6129c3565b905060006064600288611b8591906144f0565b611b8f9190614561565b905060008188611b9f9190614592565b90506040518061014001604052808481526020018881526020013373ffffffffffffffffffffffffffffffffffffffff1681526020018a73ffffffffffffffffffffffffffffffffffffffff1681526020018281526020018381526020014281526020018781526020016000815260200160006003811115611c2457611c2361331c565b5b81525060fc6000858152602001908152602001600020600082015181600001556020820151816001019081611c599190614768565b5060408201518160020160006101000a81548173ffffffffffffffffffffffffffffffffffffffff021916908373ffffffffffffffffffffffffffffffffffffffff16021790555060608201518160030160006101000a81548173ffffffffffffffffffffffffffffffffffffffff021916908373ffffffffffffffffffffffffffffffffffffffff1602179055506080820151816004015560a0820151816005015560c0820151816006015560e0820151816007015561010082015181600801556101208201518160090160006101000a81548160ff02191690836003811115611d4757611d4661331c565b5b0217905550905050600160fd60003373ffffffffffffffffffffffffffffffffffffffff1673ffffffffffffffffffffffffffffffffffffffff16815260200190815260200160002054611d9b9190613adf565b60fd60003373ffffffffffffffffffffffffffffffffffffffff1673ffffffffffffffffffffffffffffffffffffffff168152602001908152602001600020819055508260fe60003373ffffffffffffffffffffffffffffffffffffffff1673ffffffffffffffffffffffffffffffffffffffff168152602001908152602001600020600060fd60003373ffffffffffffffffffffffffffffffffffffffff1673ffffffffffffffffffffffffffffffffffffffff16815260200190815260200160002054815260200190815260200160002081905550600160fd60008b73ffffffffffffffffffffffffffffffffffffffff1673ffffffffffffffffffffffffffffffffffffffff16815260200190815260200160002054611ebe9190613adf565b60fd60008b73ffffffffffffffffffffffffffffffffffffffff1673ffffffffffffffffffffffffffffffffffffffff168152602001908152602001600020819055508260fe60008b73ffffffffffffffffffffffffffffffffffffffff1673ffffffffffffffffffffffffffffffffffffffff168152602001908152602001600020600060fd60008d73ffffffffffffffffffffffffffffffffffffffff1673ffffffffffffffffffffffffffffffffffffffff168152602001908152602001600020548152602001908152602001600020819055508181847f5e8d823ef62d250c8fdfb9e130d2581f0d967597da259f6f8b46f88e96bd45e18a338e8c6000604051611fd0959493929190614882565b60405180910390a450505060018081905550505050505050565b611ff2613175565b60fc6000838152602001908152602001600020604051806101400160405290816000820154815260200160018201805461202b90613b42565b80601f016020809104026020016040519081016040528092919081815260200182805461205790613b42565b80156120a45780601f10612079576101008083540402835291602001916120a4565b820191906000526020600020905b81548152906001019060200180831161208757829003601f168201915b505050505081526020016002820160009054906101000a900473ffffffffffffffffffffffffffffffffffffffff1673ffffffffffffffffffffffffffffffffffffffff1673ffffffffffffffffffffffffffffffffffffffff1681526020016003820160009054906101000a900473ffffffffffffffffffffffffffffffffffffffff1673ffffffffffffffffffffffffffffffffffffffff1673ffffffffffffffffffffffffffffffffffffffff16815260200160048201548152602001600582015481526020016006820154815260200160078201548152602001600882015481526020016009820160009054906101000a900460ff1660038111156121b0576121af61331c565b5b60038111156121c2576121c161331c565b5b815250509050919050565b60606000806000808590503373ffffffffffffffffffffffffffffffffffffffff166121f7611524565b73ffffffffffffffffffffffffffffffffffffffff160361250857600061221e60fb6129c3565b905060006001905088826122329190614592565b8311156122505788826122459190614592565b925060009050612268565b888261225c9190614592565b830361226757600090505b5b60008367ffffffffffffffff811115612284576122836135f5565b5b6040519080825280602002602001820160405280156122bd57816020015b6122aa613175565b8152602001906001900390816122a25790505b50905060005b848110156124e75760fc60006001838e6122dd9190613adf565b6122e79190613adf565b8152602001908152602001600020604051806101400160405290816000820154815260200160018201805461231b90613b42565b80601f016020809104026020016040519081016040528092919081815260200182805461234790613b42565b80156123945780601f1061236957610100808354040283529160200191612394565b820191906000526020600020905b81548152906001019060200180831161237757829003601f168201915b505050505081526020016002820160009054906101000a900473ffffffffffffffffffffffffffffffffffffffff1673ffffffffffffffffffffffffffffffffffffffff1673ffffffffffffffffffffffffffffffffffffffff1681526020016003820160009054906101000a900473ffffffffffffffffffffffffffffffffffffffff1673ffffffffffffffffffffffffffffffffffffffff1673ffffffffffffffffffffffffffffffffffffffff16815260200160048201548152602001600582015481526020016006820154815260200160078201548152602001600882015481526020016009820160009054906101000a900460ff1660038111156124a05761249f61331c565b5b60038111156124b2576124b161331c565b5b815250508282815181106124c9576124c8613b73565b5b602002602001018190525080806124df90613ba2565b9150506122c3565b50808383868d6124f79190613adf565b975097509750975050505050612937565b6000600190508760fd60003373ffffffffffffffffffffffffffffffffffffffff1673ffffffffffffffffffffffffffffffffffffffff168152602001908152602001600020546125599190614592565b8211156125b6578760fd60003373ffffffffffffffffffffffffffffffffffffffff1673ffffffffffffffffffffffffffffffffffffffff168152602001908152602001600020546125ab9190614592565b91506000905061260d565b8760fd60003373ffffffffffffffffffffffffffffffffffffffff1673ffffffffffffffffffffffffffffffffffffffff168152602001908152602001600020546126019190614592565b820361260c57600090505b5b60008267ffffffffffffffff811115612629576126286135f5565b5b60405190808252806020026020018201604052801561266257816020015b61264f613175565b8152602001906001900390816126475790505b50905060005b838110156128dc5760fc600060fe60003373ffffffffffffffffffffffffffffffffffffffff1673ffffffffffffffffffffffffffffffffffffffff16815260200190815260200160002060006001858f6126c39190613adf565b6126cd9190613adf565b8152602001908152602001600020548152602001908152602001600020604051806101400160405290816000820154815260200160018201805461271090613b42565b80601f016020809104026020016040519081016040528092919081815260200182805461273c90613b42565b80156127895780601f1061275e57610100808354040283529160200191612789565b820191906000526020600020905b81548152906001019060200180831161276c57829003601f168201915b505050505081526020016002820160009054906101000a900473ffffffffffffffffffffffffffffffffffffffff1673ffffffffffffffffffffffffffffffffffffffff1673ffffffffffffffffffffffffffffffffffffffff1681526020016003820160009054906101000a900473ffffffffffffffffffffffffffffffffffffffff1673ffffffffffffffffffffffffffffffffffffffff1673ffffffffffffffffffffffffffffffffffffffff16815260200160048201548152602001600582015481526020016006820154815260200160078201548152602001600882015481526020016009820160009054906101000a900460ff1660038111156128955761289461331c565b5b60038111156128a7576128a661331c565b5b815250508282815181106128be576128bd613b73565b5b602002602001018190525080806128d490613ba2565b915050612668565b508060fd60003373ffffffffffffffffffffffffffffffffffffffff1673ffffffffffffffffffffffffffffffffffffffff1681526020019081526020016000205483858c61292b9190613adf565b96509650965096505050505b92959194509250565b612948612ba1565b600073ffffffffffffffffffffffffffffffffffffffff168173ffffffffffffffffffffffffffffffffffffffff16036129b7576040517f08c379a00000000000000000000000000000000000000000000000000000000081526004016129ae9061494e565b60405180910390fd5b6129c081612c1f565b50565b600081600001549050919050565b60006129ff7f360894a13ba1a3210667c828492db98dca3e2076cc3735a920a3ca505d382bbc60001b612e21565b60000160009054906101000a900473ffffffffffffffffffffffffffffffffffffffff16905090565b612a30612ba1565b50565b612a5f7f4910fdfa16fed3260ed0e7147f7cc6da11a60208b5b9406d12a635614ffd914360001b612e2b565b60000160009054906101000a900460ff1615612a8357612a7e83612e35565b612b9c565b8273ffffffffffffffffffffffffffffffffffffffff166352d1902d6040518163ffffffff1660e01b8152600401602060405180830381865afa925050508015612aeb57506040513d601f19601f82011682018060405250810190612ae8919061499a565b60015b612b2a576040517f08c379a0000000000000000000000000000000000000000000000000000000008152600401612b2190614a39565b60405180910390fd5b7f360894a13ba1a3210667c828492db98dca3e2076cc3735a920a3ca505d382bbc60001b8114612b8f576040517f08c379a0000000000000000000000000000000000000000000000000000000008152600401612b8690614acb565b60405180910390fd5b50612b9b838383612eee565b5b505050565b612ba9612f1a565b73ffffffffffffffffffffffffffffffffffffffff16612bc7611524565b73ffffffffffffffffffffffffffffffffffffffff1614612c1d576040517f08c379a0000000000000000000000000000000000000000000000000000000008152600401612c1490614b37565b60405180910390fd5b565b6000606560009054906101000a900473ffffffffffffffffffffffffffffffffffffffff16905081606560006101000a81548173ffffffffffffffffffffffffffffffffffffffff021916908373ffffffffffffffffffffffffffffffffffffffff1602179055508173ffffffffffffffffffffffffffffffffffffffff168173ffffffffffffffffffffffffffffffffffffffff167f8be0079c531659141344cd1fd0a4f28419497f9722a3daafe3b4186f6b6457e060405160405180910390a35050565b6000808273ffffffffffffffffffffffffffffffffffffffff163b119050919050565b600060019054906101000a900460ff16612d57576040517f08c379a0000000000000000000000000000000000000000000000000000000008152600401612d4e90614bc9565b60405180910390fd5b612d5f612f22565b565b600060019054906101000a900460ff16612db0576040517f08c379a0000000000000000000000000000000000000000000000000000000008152600401612da790614bc9565b60405180910390fd5b612db8612f7a565b565b600060019054906101000a900460ff16612e09576040517f08c379a0000000000000000000000000000000000000000000000000000000008152600401612e0090614bc9565b60405180910390fd5b565b6001816000016000828254019250508190555050565b6000819050919050565b6000819050919050565b612e3e81612ce5565b612e7d576040517f08c379a0000000000000000000000000000000000000000000000000000000008152600401612e7490614c5b565b60405180910390fd5b80612eaa7f360894a13ba1a3210667c828492db98dca3e2076cc3735a920a3ca505d382bbc60001b612e21565b60000160006101000a81548173ffffffffffffffffffffffffffffffffffffffff021916908373ffffffffffffffffffffffffffffffffffffffff16021790555050565b612ef783612fdb565b600082511180612f045750805b15612f1557612f13838361302a565b505b505050565b600033905090565b600060019054906101000a900460ff16612f71576040517f08c379a0000000000000000000000000000000000000000000000000000000008152600401612f6890614bc9565b60405180910390fd5b60018081905550565b600060019054906101000a900460ff16612fc9576040517f08c379a0000000000000000000000000000000000000000000000000000000008152600401612fc090614bc9565b60405180910390fd5b612fd9612fd4612f1a565b612c1f565b565b612fe481612e35565b8073ffffffffffffffffffffffffffffffffffffffff167fbc7cd75a20ee27fd9adebab32041f755214dbc6bffa90cc0225b39da2e5c2d3b60405160405180910390a250565b606061303583612ce5565b613074576040517f08c379a000000000000000000000000000000000000000000000000000000000815260040161306b90614ced565b60405180910390fd5b6000808473ffffffffffffffffffffffffffffffffffffffff168460405161309c9190614d54565b600060405180830381855af49150503d80600081146130d7576040519150601f19603f3d011682016040523d82523d6000602084013e6130dc565b606091505b50915091506131048282604051806060016040528060278152602001614d8e6027913961310e565b9250505092915050565b6060831561311e5782905061316e565b6000835111156131315782518084602001fd5b816040517f08c379a00000000000000000000000000000000000000000000000000000000081526004016131659190614d6b565b60405180910390fd5b9392505050565b6040518061014001604052806000815260200160608152602001600073ffffffffffffffffffffffffffffffffffffffff168152602001600073ffffffffffffffffffffffffffffffffffffffff168152602001600081526020016000815260200160008152602001600081526020016000815260200160006003811115613200576131ff61331c565b5b81525090565b600081519050919050565b600082825260208201905092915050565b6000819050602082019050919050565b6000819050919050565b61324581613232565b82525050565b600081519050919050565b600082825260208201905092915050565b60005b8381101561328557808201518184015260208101905061326a565b60008484015250505050565b6000601f19601f8301169050919050565b60006132ad8261324b565b6132b78185613256565b93506132c7818560208601613267565b6132d081613291565b840191505092915050565b600073ffffffffffffffffffffffffffffffffffffffff82169050919050565b6000613306826132db565b9050919050565b613316816132fb565b82525050565b7f4e487b7100000000000000000000000000000000000000000000000000000000600052602160045260246000fd5b6004811061335c5761335b61331c565b5b50565b600081905061336d8261334b565b919050565b600061337d8261335f565b9050919050565b61338d81613372565b82525050565b6000610140830160008301516133ac600086018261323c565b50602083015184820360208601526133c482826132a2565b91505060408301516133d9604086018261330d565b5060608301516133ec606086018261330d565b5060808301516133ff608086018261323c565b5060a083015161341260a086018261323c565b5060c083015161342560c086018261323c565b5060e083015161343860e086018261323c565b5061010083015161344d61010086018261323c565b50610120830151613462610120860182613384565b508091505092915050565b60006134798383613393565b905092915050565b6000602082019050919050565b600061349982613206565b6134a38185613211565b9350836020820285016134b585613222565b8060005b858110156134f157848403895281516134d2858261346d565b94506134dd83613481565b925060208a019950506001810190506134b9565b50829750879550505050505092915050565b6000602082019050818103600083015261351d818461348e565b905092915050565b6000604051905090565b600080fd5b600080fd5b61354281613232565b811461354d57600080fd5b50565b60008135905061355f81613539565b92915050565b60006020828403121561357b5761357a61352f565b5b600061358984828501613550565b91505092915050565b61359b816132fb565b81146135a657600080fd5b50565b6000813590506135b881613592565b92915050565b6000602082840312156135d4576135d361352f565b5b60006135e2848285016135a9565b91505092915050565b600080fd5b600080fd5b7f4e487b7100000000000000000000000000000000000000000000000000000000600052604160045260246000fd5b61362d82613291565b810181811067ffffffffffffffff8211171561364c5761364b6135f5565b5b80604052505050565b600061365f613525565b905061366b8282613624565b919050565b600067ffffffffffffffff82111561368b5761368a6135f5565b5b61369482613291565b9050602081019050919050565b82818337600083830152505050565b60006136c36136be84613670565b613655565b9050828152602081018484840111156136df576136de6135f0565b5b6136ea8482856136a1565b509392505050565b600082601f830112613707576137066135eb565b5b81356137178482602086016136b0565b91505092915050565b600080604083850312156137375761373661352f565b5b6000613745858286016135a9565b925050602083013567ffffffffffffffff81111561376657613765613534565b5b613772858286016136f2565b9150509250929050565b6000819050919050565b61378f8161377c565b82525050565b60006020820190506137aa6000830184613786565b92915050565b6137b9816132fb565b82525050565b60006020820190506137d460008301846137b0565b92915050565b600067ffffffffffffffff8211156137f5576137f46135f5565b5b6137fe82613291565b9050602081019050919050565b600061381e613819846137da565b613655565b90508281526020810184848401111561383a576138396135f0565b5b6138458482856136a1565b509392505050565b600082601f830112613862576138616135eb565b5b813561387284826020860161380b565b91505092915050565b600080600080608085870312156138955761389461352f565b5b60006138a3878288016135a9565b94505060206138b487828801613550565b935050604085013567ffffffffffffffff8111156138d5576138d4613534565b5b6138e18782880161384d565b92505060606138f287828801613550565b91505092959194509250565b600061014083016000830151613917600086018261323c565b506020830151848203602086015261392f82826132a2565b9150506040830151613944604086018261330d565b506060830151613957606086018261330d565b50608083015161396a608086018261323c565b5060a083015161397d60a086018261323c565b5060c083015161399060c086018261323c565b5060e08301516139a360e086018261323c565b506101008301516139b861010086018261323c565b506101208301516139cd610120860182613384565b508091505092915050565b600060208201905081810360008301526139f281846138fe565b905092915050565b60008060408385031215613a1157613a1061352f565b5b6000613a1f85828601613550565b9250506020613a3085828601613550565b9150509250929050565b613a4381613232565b82525050565b60008115159050919050565b613a5e81613a49565b82525050565b60006080820190508181036000830152613a7e818761348e565b9050613a8d6020830186613a3a565b613a9a6040830185613a55565b613aa76060830184613a3a565b95945050505050565b7f4e487b7100000000000000000000000000000000000000000000000000000000600052601160045260246000fd5b6000613aea82613232565b9150613af583613232565b9250828201905080821115613b0d57613b0c613ab0565b5b92915050565b7f4e487b7100000000000000000000000000000000000000000000000000000000600052602260045260246000fd5b60006002820490506001821680613b5a57607f821691505b602082108103613b6d57613b6c613b13565b5b50919050565b7f4e487b7100000000000000000000000000000000000000000000000000000000600052603260045260246000fd5b6000613bad82613232565b91507fffffffffffffffffffffffffffffffffffffffffffffffffffffffffffffffff8203613bdf57613bde613ab0565b5b600182019050919050565b600082825260208201905092915050565b7f4f6e6c792073656c6c6572206f72204f776e65722063616e20706572666f726d60008201527f207468697320616374696f6e0000000000000000000000000000000000000000602082015250565b6000613c57602c83613bea565b9150613c6282613bfb565b604082019050919050565b60006020820190508181036000830152613c8681613c4a565b9050919050565b7f5265656e7472616e637947756172643a207265656e7472616e742063616c6c00600082015250565b6000613cc3601f83613bea565b9150613cce82613c8d565b602082019050919050565b60006020820190508181036000830152613cf281613cb6565b9050919050565b7f43616e277420726566756e64207468697320657363726f772e20416c7265616460008201527f792075706461746564206265666f726500000000000000000000000000000000602082015250565b6000613d55603083613bea565b9150613d6082613cf9565b604082019050919050565b60006020820190508181036000830152613d8481613d48565b9050919050565b6000604082019050613da060008301856137b0565b613dad6020830184613a3a565b9392505050565b613dbd81613a49565b8114613dc857600080fd5b50565b600081519050613dda81613db4565b92915050565b600060208284031215613df657613df561352f565b5b6000613e0484828501613dcb565b91505092915050565b7f46756e6374696f6e206d7573742062652063616c6c6564207468726f7567682060008201527f64656c656761746563616c6c0000000000000000000000000000000000000000602082015250565b6000613e69602c83613bea565b9150613e7482613e0d565b604082019050919050565b60006020820190508181036000830152613e9881613e5c565b9050919050565b7f46756e6374696f6e206d7573742062652063616c6c6564207468726f7567682060008201527f6163746976652070726f78790000000000000000000000000000000000000000602082015250565b6000613efb602c83613bea565b9150613f0682613e9f565b604082019050919050565b60006020820190508181036000830152613f2a81613eee565b9050919050565b7f4f6e6c792042757965722043616e204163636573730000000000000000000000600082015250565b6000613f67601583613bea565b9150613f7282613f31565b602082019050919050565b60006020820190508181036000830152613f9681613f5a565b9050919050565b7f596f752063616e27742064656c69766572207468697320657363726f772e204160008201527f6c72656164792075706461746564206265666f72650000000000000000000000602082015250565b6000613ff9603583613bea565b915061400482613f9d565b604082019050919050565b6000602082019050818103600083015261402881613fec565b9050919050565b7f555550535570677261646561626c653a206d757374206e6f742062652063616c60008201527f6c6564207468726f7567682064656c656761746563616c6c0000000000000000602082015250565b600061408b603883613bea565b91506140968261402f565b604082019050919050565b600060208201905081810360008301526140ba8161407e565b9050919050565b7f496e697469616c697a61626c653a20636f6e747261637420697320616c72656160008201527f647920696e697469616c697a6564000000000000000000000000000000000000602082015250565b600061411d602e83613bea565b9150614128826140c1565b604082019050919050565b6000602082019050818103600083015261414c81614110565b9050919050565b6000819050919050565b600060ff82169050919050565b6000819050919050565b600061418f61418a61418584614153565b61416a565b61415d565b9050919050565b61419f81614174565b82525050565b60006020820190506141ba6000830184614196565b92915050565b7f4f6e6c792053656c6c65722043616e2041636365737300000000000000000000600082015250565b60006141f6601683613bea565b9150614201826141c0565b602082019050919050565b60006020820190508181036000830152614225816141e9565b9050919050565b7f457363726f772069736e27742065787069726564207965740000000000000000600082015250565b6000614262601883613bea565b915061426d8261422c565b602082019050919050565b6000602082019050818103600083015261429181614255565b9050919050565b7f596f752063616e277420636c61696d207468697320657363726f772e20416c7260008201527f656164792075706461746564206265666f726500000000000000000000000000602082015250565b60006142f4603383613bea565b91506142ff82614298565b604082019050919050565b60006020820190508181036000830152614323816142e7565b9050919050565b600060408201905061433f60008301856137b0565b61434c60208301846137b0565b9392505050565b60008151905061436281613539565b92915050565b60006020828403121561437e5761437d61352f565b5b600061438c84828501614353565b91505092915050565b7f596f7520646f6e2774206861766520656e6f7567682066756e647320616c6c6f60008201527f77656420666f7220746865207472616e73666572000000000000000000000000602082015250565b60006143f1603483613bea565b91506143fc82614395565b604082019050919050565b60006020820190508181036000830152614420816143e4565b9050919050565b7f457363726f77206d757374206265206c6172676572207468656e20746865206d60008201527f696e696d756d20616d6f756e7400000000000000000000000000000000000000602082015250565b6000614483602d83613bea565b915061448e82614427565b604082019050919050565b600060208201905081810360008301526144b281614476565b9050919050565b60006060820190506144ce60008301866137b0565b6144db60208301856137b0565b6144e86040830184613a3a565b949350505050565b60006144fb82613232565b915061450683613232565b925082820261451481613232565b9150828204841483151761452b5761452a613ab0565b5b5092915050565b7f4e487b7100000000000000000000000000000000000000000000000000000000600052601260045260246000fd5b600061456c82613232565b915061457783613232565b92508261458757614586614532565b5b828204905092915050565b600061459d82613232565b91506145a883613232565b92508282039050818111156145c0576145bf613ab0565b5b92915050565b60008190508160005260206000209050919050565b60006020601f8301049050919050565b600082821b905092915050565b6000600883026146287fffffffffffffffffffffffffffffffffffffffffffffffffffffffffffffffff826145eb565b61463286836145eb565b95508019841693508086168417925050509392505050565b600061466561466061465b84613232565b61416a565b613232565b9050919050565b6000819050919050565b61467f8361464a565b61469361468b8261466c565b8484546145f8565b825550505050565b600090565b6146a861469b565b6146b3818484614676565b505050565b5b818110156146d7576146cc6000826146a0565b6001810190506146b9565b5050565b601f82111561471c576146ed816145c6565b6146f6846145db565b81016020851015614705578190505b614719614711856145db565b8301826146b8565b50505b505050565b600082821c905092915050565b600061473f60001984600802614721565b1980831691505092915050565b6000614758838361472e565b9150826002028217905092915050565b6147718261324b565b67ffffffffffffffff81111561478a576147896135f5565b5b6147948254613b42565b61479f8282856146db565b600060209050601f8311600181146147d257600084156147c0578287015190505b6147ca858261474c565b865550614832565b601f1984166147e0866145c6565b60005b82811015614808578489015182556001820191506020850194506020810190506147e3565b868310156148255784890151614821601f89168261472e565b8355505b6001600288020188555050505b505050505050565b60006148458261324b565b61484f8185613bea565b935061485f818560208601613267565b61486881613291565b840191505092915050565b61487c81613372565b82525050565b600060a082019050818103600083015261489c818861483a565b90506148ab60208301876137b0565b6148b860408301866137b0565b6148c56060830185613a3a565b6148d26080830184614873565b9695505050505050565b7f4f776e61626c653a206e6577206f776e657220697320746865207a65726f206160008201527f6464726573730000000000000000000000000000000000000000000000000000602082015250565b6000614938602683613bea565b9150614943826148dc565b604082019050919050565b600060208201905081810360008301526149678161492b565b9050919050565b6149778161377c565b811461498257600080fd5b50565b6000815190506149948161496e565b92915050565b6000602082840312156149b0576149af61352f565b5b60006149be84828501614985565b91505092915050565b7f45524331393637557067726164653a206e657720696d706c656d656e7461746960008201527f6f6e206973206e6f742055555053000000000000000000000000000000000000602082015250565b6000614a23602e83613bea565b9150614a2e826149c7565b604082019050919050565b60006020820190508181036000830152614a5281614a16565b9050919050565b7f45524331393637557067726164653a20756e737570706f727465642070726f7860008201527f6961626c65555549440000000000000000000000000000000000000000000000602082015250565b6000614ab5602983613bea565b9150614ac082614a59565b604082019050919050565b60006020820190508181036000830152614ae481614aa8565b9050919050565b7f4f776e61626c653a2063616c6c6572206973206e6f7420746865206f776e6572600082015250565b6000614b21602083613bea565b9150614b2c82614aeb565b602082019050919050565b60006020820190508181036000830152614b5081614b14565b9050919050565b7f496e697469616c697a61626c653a20636f6e7472616374206973206e6f74206960008201527f6e697469616c697a696e67000000000000000000000000000000000000000000602082015250565b6000614bb3602b83613bea565b9150614bbe82614b57565b604082019050919050565b60006020820190508181036000830152614be281614ba6565b9050919050565b7f455243313936373a206e657720696d706c656d656e746174696f6e206973206e60008201527f6f74206120636f6e747261637400000000000000000000000000000000000000602082015250565b6000614c45602d83613bea565b9150614c5082614be9565b604082019050919050565b60006020820190508181036000830152614c7481614c38565b9050919050565b7f416464726573733a2064656c65676174652063616c6c20746f206e6f6e2d636f60008201527f6e74726163740000000000000000000000000000000000000000000000000000602082015250565b6000614cd7602683613bea565b9150614ce282614c7b565b604082019050919050565b60006020820190508181036000830152614d0681614cca565b9050919050565b600081519050919050565b600081905092915050565b6000614d2e82614d0d565b614d388185614d18565b9350614d48818560208601613267565b80840191505092915050565b6000614d608284614d23565b915081905092915050565b60006020820190508181036000830152614d85818461483a565b90509291505056fe416464726573733a206c6f772d6c6576656c2064656c65676174652063616c6c206661696c6564a26469706673582212208d0ea83c242c29874a9f136ee8fab5853a8ace4d60c8dcbff6ad430e6ee4db7a64736f6c63430008110033",
  "linkReferences": {},
  "deployedLinkReferences": {}
}